:020000040000FA
:020000005C2B77
:0800080024298A01331C092898
:10001000152882073F3406345B344F3466346D3420
:100020007D3407347F346F3400348207BF34863424
:10003000DB34CF34E634ED34FD348734FF34EF3431
:100040000034051AB314051EB31C2828B3100E2A59
:10005000B319051F2F28051E2F28B3110513851569
:100060002708052086008723851105152808052007
:10007000860087230511851429080520860087231B
:10008000851001302A02031C4B2805142A0805207C
:10009000860087230510051EFF30051EB000051ED3
:1000A000EE28051EEE28B003031DEE2800308B005D
:1000B000F128051EFF30051EB000051E6228B00B9A
:1000C0006228FC2801302A02031C6C2805142A0827
:1000D0000520860087230510851429080520860041
:1000E00087238510AF03031D7C28331D643033192B
:1000F0006430AF000430B306331D8A288515270805
:10010000052086008723851105152808052086000F
:1001100087230511051AB314051EB31C5928A70A15
:100120000A302702031995289728A701A80A063044
:1001300028020319A801B31059283310051EFF30F7
:10014000051EB000051EA728B00BA7280C29051511
:1001500028080520860087238501051185152708B5
:1001600005208600872385018511AF03031DBF2865
:10017000331D643033196430AF000430B306331DCF
:10018000D32801302A02031CCC2805142A08052094
:10019000860087238501051085142908052086001F
:1001A000872385018510051AB314051EB31C9D28ED
:1001B000A90AB3100A3029020319DF28E128AA0A84
:1001C000A901043029020319E6289D2802302A02D9
:1001D0000319EB289D28A901AA019D28A0308B00B6
:1001E00021284930860005158515872305118511BD
:1001F000B310051AF12859283930860005148723D1
:1002000005100F308600851487238510FF30B0005D
:10021000B310051AFC289D28393086000514872361
:100220000510093086008514872385100930860063
:100230000515872305110F30860085158723851145
:10024000B310051A0C292128A4000308A300A10853
:100250000319A003A10B7C29A008031D7C290730EA
:10026000A000A130A1002030A2070318A10A01308C
:10027000B306331C6529A50A0A302502031D65292A
:10028000A501A60A06302602031D6529A601A70AB4
:100290000A302702031D6529A701A80A0630280293
:1002A000031D6529A801A90A0A302902031D5A293C
:1002B000AA0AA90104302902031D652902302A0275
:1002C000031963296529A901AA010000B31D7C292E
:1002D0002B08270203196D297C292C0828020319F1
:1002E00072297C292D082902031977297C292E08D7
:1002F0002A02031905177C290B1123088300A40E79
:04030000240E0900BE
:100400008A018A1482073F3406345B344F346634E1
:100410006D347D3407347F346F340034B319051FD5
:10042000152A051E152AB3110513051AB314051E46
:10043000B31C1C2AB310282885152B08002286001F
:100440007F23851105152C08002286007F230511C6
:1004500085142D08002286007F23851001302E028E
:10046000031C382A05142E08002286007F2305105D
:10047000051EFF30051EB000051E4D2B051E4D2B21
:10048000B003031D4D2B3930860005157F23051160
:100490000F30860085157F238511FF30B000B31023
:1004A000051A432A051EFF30051EB000051E5B2AF3
:1004B000B00B5B2A962A01302E02031C652A051414
:1004C0002E08002286007F23051085142D080022A7
:1004D00086007F238510AF03031D752A331D64300A
:1004E00033196430AF000430B306331D832A8515F9
:1004F0002B08002286007F23851105152C08002279
:1005000086007F230511051AB314051EB31C522A59
:10051000AB0A0A302B0203198E2A902AAB01AC0ACF
:1005200006302C020319AC01B310522A3930860070
:1005300005147F2305100F30860085147F23851056
:10054000FF30B000B310051A962A00003310051EC4
:10055000FF30051EB000051EC72AB00BC72A393070
:10056000860005147F2305100930860085147F233B
:1005700085100930860005157F2305110F30860090
:1005800085157F238511B310051AAF2A0E2B05158B
:100590002C08002286007F238501051185152B0874
:1005A000002286007F2385018511AF03031DDF2A0A
:1005B000331D643033196430AF000430B306331D8B
:1005C000F32A01302E02031CEC2A05142E08002207
:1005D00086007F238501051085142D0800228600E2
:1005E0007F2385018510051AB314051EB31CA52AA7
:1005F000AD0AB3100A302D020319FF2A012BAE0AEF
:10060000AD0104302D020319062BA52A02302E025B
:1006100003190B2BA52AAD01AE01A52A051EFF303B
:10062000051EB000051E172BB00B172B3E2BB31960
:100630001A2B252B3F30860005157F2305115430DA
:10064000860085157F238511352B3F3086000514E4
:100650007F2305107130860085147F23851071304B
:10066000860005157F230511352B051AB314051EC9
:10067000B31C0E2B0830B306B3100E2B3930860096
:1006800005147F2305100F30860085147F23851005
:10069000FF30B000B310051A3E2B0E2AB00B562BBC
:1006A000512B20308506FF30B0004E2B051AB314B5
:1006B000051EB31C4E2B0E2A8830831603138100AF
:1006C00083120313A0308B000830831603138E00AF
:1006D000831203130030831603138600831203135F
:1006E00086011030831603138500831203138501DE
:1006F0000F30A0004330A1004030A20021288A0121
:100700008A14FF30B200B203031D832B08008A0154
:0C071000FF30B200B203031D8A2B08006A
:02400E00383F39
:00000001FF
